{
  "contractName": "EnergyMarket",
  "abi": [
    {
      "constant": true,
      "inputs": [
        {
          "internalType": "address",
          "name": "",
          "type": "address"
        }
      ],
      "name": "users",
      "outputs": [
        {
          "internalType": "uint256",
          "name": "rate",
          "type": "uint256"
        },
        {
          "internalType": "uint256",
          "name": "demand_profile",
          "type": "uint256"
        },
        {
          "internalType": "uint256",
          "name": "demand",
          "type": "uint256"
        },
        {
          "internalType": "uint256",
          "name": "buy_bid_peak",
          "type": "uint256"
        },
        {
          "internalType": "uint256",
          "name": "buy_bid_offpeak",
          "type": "uint256"
        },
        {
          "internalType": "uint256",
          "name": "sell_bid_peak",
          "type": "uint256"
        },
        {
          "internalType": "uint256",
          "name": "sell_bid_offpeak",
          "type": "uint256"
        },
        {
          "internalType": "uint256",
          "name": "solar_excess",
          "type": "uint256"
        },
        {
          "internalType": "uint256",
          "name": "solar_capacity",
          "type": "uint256"
        },
        {
          "internalType": "uint256",
          "name": "balance",
          "type": "uint256"
        }
      ],
      "payable": false,
      "stateMutability": "view",
      "type": "function"
    },
    {
      "constant": false,
      "inputs": [
        {
          "internalType": "uint256",
          "name": "_rate",
          "type": "uint256"
        },
        {
          "internalType": "uint256",
          "name": "_solarCapacity",
          "type": "uint256"
        }
      ],
      "name": "register",
      "outputs": [],
      "payable": false,
      "stateMutability": "nonpayable",
      "type": "function"
    },
    {
      "constant": true,
      "inputs": [
        {
          "internalType": "address",
          "name": "toUser",
          "type": "address"
        },
        {
          "internalType": "uint256",
          "name": "_val",
          "type": "uint256"
        }
      ],
      "name": "getUserData",
      "outputs": [
        {
          "internalType": "uint256",
          "name": "",
          "type": "uint256"
        }
      ],
      "payable": false,
      "stateMutability": "view",
      "type": "function"
    },
    {
      "constant": false,
      "inputs": [
        {
          "internalType": "address",
          "name": "toUser",
          "type": "address"
        },
        {
          "internalType": "uint256",
          "name": "_buyBidPk",
          "type": "uint256"
        }
      ],
      "name": "setBuyBid",
      "outputs": [],
      "payable": false,
      "stateMutability": "nonpayable",
      "type": "function"
    },
    {
      "constant": false,
      "inputs": [
        {
          "internalType": "address",
          "name": "toUser",
          "type": "address"
        },
        {
          "internalType": "uint256",
          "name": "_sellBidPk",
          "type": "uint256"
        }
      ],
      "name": "setSellBid",
      "outputs": [],
      "payable": false,
      "stateMutability": "nonpayable",
      "type": "function"
    },
    {
      "constant": false,
      "inputs": [
        {
          "internalType": "uint256[]",
          "name": "_demand",
          "type": "uint256[]"
        },
        {
          "internalType": "uint256",
          "name": "_irradiation",
          "type": "uint256"
        }
      ],
      "name": "updateDI",
      "outputs": [],
      "payable": false,
      "stateMutability": "nonpayable",
      "type": "function"
    },
    {
      "constant": false,
      "inputs": [],
      "name": "clearMarket",
      "outputs": [],
      "payable": false,
      "stateMutability": "nonpayable",
      "type": "function"
    }
  ],
  "bytecode": "0x608060405260006001556000600255600f6006556019600755600260085560086009556001600a556001600b5534801561003857600080fd5b50612714806100486000396000f3fe608060405234801561001057600080fd5b506004361061007d5760003560e01c8063a87430ba1161005b578063a87430ba14610180578063b5086c2714610217578063d66d6c10146102d9578063fc81587a146103115761007d565b80632d7ae8da146100825780634cd01af1146100d05780634f73f42914610132575b600080fd5b6100ce6004803603604081101561009857600080fd5b81019080803573ffffffffffffffffffffffffffffffffffffffff1690602001909291908035906020019092919050505061031b565b005b61011c600480360360408110156100e657600080fd5b81019080803573ffffffffffffffffffffffffffffffffffffffff169060200190929190803590602001909291905050506103ac565b6040518082815260200191505060405180910390f35b61017e6004803603604081101561014857600080fd5b81019080803573ffffffffffffffffffffffffffffffffffffffff16906020019092919080359060200190929190505050610642565b005b6101c26004803603602081101561019657600080fd5b81019080803573ffffffffffffffffffffffffffffffffffffffff1690602001909291905050506106d3565b604051808b81526020018a81526020018981526020018881526020018781526020018681526020018581526020018481526020018381526020018281526020019a505050505050505050505060405180910390f35b6102d76004803603604081101561022d57600080fd5b810190808035906020019064010000000081111561024a57600080fd5b82018360208201111561025c57600080fd5b8035906020019184602083028401116401000000008311171561027e57600080fd5b919080806020026020016040519081016040528093929190818152602001838360200280828437600081840152601f19601f82011690508083019250505050505050919291929080359060200190929190505050610727565b005b61030f600480360360408110156102ef57600080fd5b810190808035906020019092919080359060200190929190505050610bcc565b005b610319610dac565b005b806000808473ffffffffffffffffffffffffffffffffffffffff1673ffffffffffffffffffffffffffffffffffffffff1681526020019081526020016000206003018190555060008060008473ffffffffffffffffffffffffffffffffffffffff1673ffffffffffffffffffffffffffffffffffffffff168152602001908152602001600020600501819055505050565b6000806000831415610401576000808573ffffffffffffffffffffffffffffffffffffffff1673ffffffffffffffffffffffffffffffffffffffff168152602001908152602001600020600001549050610638565b6001831415610453576000808573ffffffffffffffffffffffffffffffffffffffff1673ffffffffffffffffffffffffffffffffffffffff168152602001908152602001600020600101549050610637565b60028314156104a5576000808573ffffffffffffffffffffffffffffffffffffffff1673ffffffffffffffffffffffffffffffffffffffff168152602001908152602001600020600201549050610636565b60038314156104f7576000808573ffffffffffffffffffffffffffffffffffffffff1673ffffffffffffffffffffffffffffffffffffffff168152602001908152602001600020600301549050610635565b6004831415610549576000808573ffffffffffffffffffffffffffffffffffffffff1673ffffffffffffffffffffffffffffffffffffffff168152602001908152602001600020600501549050610634565b600583141561059b576000808573ffffffffffffffffffffffffffffffffffffffff1673ffffffffffffffffffffffffffffffffffffffff168152602001908152602001600020600801549050610633565b60068314156105ed576000808573ffffffffffffffffffffffffffffffffffffffff1673ffffffffffffffffffffffffffffffffffffffff168152602001908152602001600020600701549050610632565b6000808573ffffffffffffffffffffffffffffffffffffffff1673ffffffffffffffffffffffffffffffffffffffff1681526020019081526020016000206009015490505b5b5b5b5b5b5b8091505092915050565b806000808473ffffffffffffffffffffffffffffffffffffffff1673ffffffffffffffffffffffffffffffffffffffff1681526020019081526020016000206005018190555060008060008473ffffffffffffffffffffffffffffffffffffffff1673ffffffffffffffffffffffffffffffffffffffff168152602001908152602001600020600301819055505050565b6000602052806000526040600020600091509050806000015490806001015490806002015490806003015490806004015490806005015490806006015490806007015490806008015490806009015490508a565b80600b8190555060008090505b600380549050811015610bc757826000806003848154811061075257fe5b9060005260206000200160009054906101000a900473ffffffffffffffffffffffffffffffffffffffff1673ffffffffffffffffffffffffffffffffffffffff1673ffffffffffffffffffffffffffffffffffffffff16815260200190815260200160002060010154815181106107c557fe5b6020026020010151600080600384815481106107dd57fe5b9060005260206000200160009054906101000a900473ffffffffffffffffffffffffffffffffffffffff1673ffffffffffffffffffffffffffffffffffffffff1673ffffffffffffffffffffffffffffffffffffffff16815260200190815260200160002060020181905550600b546000806003848154811061085c57fe5b9060005260206000200160009054906101000a900473ffffffffffffffffffffffffffffffffffffffff1673ffffffffffffffffffffffffffffffffffffffff1673ffffffffffffffffffffffffffffffffffffffff1681526020019081526020016000206008015402600080600384815481106108d657fe5b9060005260206000200160009054906101000a900473ffffffffffffffffffffffffffffffffffffffff1673ffffffffffffffffffffffffffffffffffffffff1673ffffffffffffffffffffffffffffffffffffffff168152602001908152602001600020600201541015610b3b576000806003838154811061095557fe5b9060005260206000200160009054906101000a900473ffffffffffffffffffffffffffffffffffffffff1673ffffffffffffffffffffffffffffffffffffffff1673ffffffffffffffffffffffffffffffffffffffff16815260200190815260200160002060020154600b54600080600385815481106109d157fe5b9060005260206000200160009054906101000a900473ffffffffffffffffffffffffffffffffffffffff1673ffffffffffffffffffffffffffffffffffffffff1673ffffffffffffffffffffffffffffffffffffffff16815260200190815260200160002060080154020360008060038481548110610a4c57fe5b9060005260206000200160009054906101000a900473ffffffffffffffffffffffffffffffffffffffff1673ffffffffffffffffffffffffffffffffffffffff1673ffffffffffffffffffffffffffffffffffffffff16815260200190815260200160002060070181905550600080600060038481548110610aca57fe5b9060005260206000200160009054906101000a900473ffffffffffffffffffffffffffffffffffffffff1673ffffffffffffffffffffffffffffffffffffffff1673ffffffffffffffffffffffffffffffffffffffff16815260200190815260200160002060020181905550610bba565b600080600060038481548110610b4d57fe5b9060005260206000200160009054906101000a900473ffffffffffffffffffffffffffffffffffffffff1673ffffffffffffffffffffffffffffffffffffffff1673ffffffffffffffffffffffffffffffffffffffff168152602001908152602001600020600701819055505b8080600101915050610734565b505050565b816000803373ffffffffffffffffffffffffffffffffffffffff1673ffffffffffffffffffffffffffffffffffffffff16815260200190815260200160002060000181905550806000803373ffffffffffffffffffffffffffffffffffffffff1673ffffffffffffffffffffffffffffffffffffffff16815260200190815260200160002060080181905550600a546000803373ffffffffffffffffffffffffffffffffffffffff1673ffffffffffffffffffffffffffffffffffffffff16815260200190815260200160002060010181905550600a600081548092919060010191905055506127106000803373ffffffffffffffffffffffffffffffffffffffff1673ffffffffffffffffffffffffffffffffffffffff1681526020019081526020016000206009018190555060033390806001815401808255809150509060018203906000526020600020016000909192909190916101000a81548173ffffffffffffffffffffffffffffffffffffffff021916908373ffffffffffffffffffffffffffffffffffffffff160217905550506000803373ffffffffffffffffffffffffffffffffffffffff1673ffffffffffffffffffffffffffffffffffffffff168152602001908152602001600020600001546002819055505050565b610db461204b565b6000809050600080905060008090505b600580549050811015611af15760008060058581548110610de157fe5b9060005260206000200160009054906101000a900473ffffffffffffffffffffffffffffffffffffffff1673ffffffffffffffffffffffffffffffffffffffff1673ffffffffffffffffffffffffffffffffffffffff1681526020019081526020016000206005015460008060048481548110610e5a57fe5b9060005260206000200160009054906101000a900473ffffffffffffffffffffffffffffffffffffffff1673ffffffffffffffffffffffffffffffffffffffff1673ffffffffffffffffffffffffffffffffffffffff168152602001908152602001600020600301541015610ece57611af1565b60008390505b600480549050811015611ae35760008060058381548110610ef157fe5b9060005260206000200160009054906101000a900473ffffffffffffffffffffffffffffffffffffffff1673ffffffffffffffffffffffffffffffffffffffff1673ffffffffffffffffffffffffffffffffffffffff1681526020019081526020016000206005015460008060048581548110610f6a57fe5b9060005260206000200160009054906101000a900473ffffffffffffffffffffffffffffffffffffffff1673ffffffffffffffffffffffffffffffffffffffff1673ffffffffffffffffffffffffffffffffffffffff168152602001908152602001600020600301541015610fde57611ae3565b60008060048381548110610fee57fe5b9060005260206000200160009054906101000a900473ffffffffffffffffffffffffffffffffffffffff1673ffffffffffffffffffffffffffffffffffffffff1673ffffffffffffffffffffffffffffffffffffffff168152602001908152602001600020600201546000806005858154811061106757fe5b9060005260206000200160009054906101000a900473ffffffffffffffffffffffffffffffffffffffff1673ffffffffffffffffffffffffffffffffffffffff1673ffffffffffffffffffffffffffffffffffffffff168152602001908152602001600020600701541061155d576002600080600585815481106110e757fe5b9060005260206000200160009054906101000a900473ffffffffffffffffffffffffffffffffffffffff1673ffffffffffffffffffffffffffffffffffffffff1673ffffffffffffffffffffffffffffffffffffffff168152602001908152602001600020600501546000806004858154811061116057fe5b9060005260206000200160009054906101000a900473ffffffffffffffffffffffffffffffffffffffff1673ffffffffffffffffffffffffffffffffffffffff1673ffffffffffffffffffffffffffffffffffffffff1681526020019081526020016000206003015401816111d157fe5b049250600080600483815481106111e457fe5b9060005260206000200160009054906101000a900473ffffffffffffffffffffffffffffffffffffffff1673ffffffffffffffffffffffffffffffffffffffff1673ffffffffffffffffffffffffffffffffffffffff1681526020019081526020016000206002015483026000806004848154811061125f57fe5b9060005260206000200160009054906101000a900473ffffffffffffffffffffffffffffffffffffffff1673ffffffffffffffffffffffffffffffffffffffff1673ffffffffffffffffffffffffffffffffffffffff16815260200190815260200160002060090160008282540392505081905550600080600483815481106112e457fe5b9060005260206000200160009054906101000a900473ffffffffffffffffffffffffffffffffffffffff1673ffffffffffffffffffffffffffffffffffffffff1673ffffffffffffffffffffffffffffffffffffffff1681526020019081526020016000206002015483026000806005858154811061135f57fe5b9060005260206000200160009054906101000a900473ffffffffffffffffffffffffffffffffffffffff1673ffffffffffffffffffffffffffffffffffffffff1673ffffffffffffffffffffffffffffffffffffffff16815260200190815260200160002060090160008282540192505081905550600080600483815481106113e457fe5b9060005260206000200160009054906101000a900473ffffffffffffffffffffffffffffffffffffffff1673ffffffffffffffffffffffffffffffffffffffff1673ffffffffffffffffffffffffffffffffffffffff168152602001908152602001600020600201546000806005858154811061145d57fe5b9060005260206000200160009054906101000a900473ffffffffffffffffffffffffffffffffffffffff1673ffffffffffffffffffffffffffffffffffffffff1673ffffffffffffffffffffffffffffffffffffffff168152602001908152602001600020600701600082825403925050819055506000806000600484815481106114e457fe5b9060005260206000200160009054906101000a900473ffffffffffffffffffffffffffffffffffffffff1673ffffffffffffffffffffffffffffffffffffffff1673ffffffffffffffffffffffffffffffffffffffff168152602001908152602001600020600201819055508380600101945050611ad6565b6000806004838154811061156d57fe5b9060005260206000200160009054906101000a900473ffffffffffffffffffffffffffffffffffffffff1673ffffffffffffffffffffffffffffffffffffffff1673ffffffffffffffffffffffffffffffffffffffff16815260200190815260200160002060020154600080600585815481106115e657fe5b9060005260206000200160009054906101000a900473ffffffffffffffffffffffffffffffffffffffff1673ffffffffffffffffffffffffffffffffffffffff1673ffffffffffffffffffffffffffffffffffffffff168152602001908152602001600020600701541015611ad55760026000806005858154811061166757fe5b9060005260206000200160009054906101000a900473ffffffffffffffffffffffffffffffffffffffff1673ffffffffffffffffffffffffffffffffffffffff1673ffffffffffffffffffffffffffffffffffffffff16815260200190815260200160002060050154600080600485815481106116e057fe5b9060005260206000200160009054906101000a900473ffffffffffffffffffffffffffffffffffffffff1673ffffffffffffffffffffffffffffffffffffffff1673ffffffffffffffffffffffffffffffffffffffff16815260200190815260200160002060030154018161175157fe5b0492506000806005848154811061176457fe5b9060005260206000200160009054906101000a900473ffffffffffffffffffffffffffffffffffffffff1673ffffffffffffffffffffffffffffffffffffffff1673ffffffffffffffffffffffffffffffffffffffff168152602001908152602001600020600701548302600080600484815481106117df57fe5b9060005260206000200160009054906101000a900473ffffffffffffffffffffffffffffffffffffffff1673ffffffffffffffffffffffffffffffffffffffff1673ffffffffffffffffffffffffffffffffffffffff168152602001908152602001600020600901600082825403925050819055506000806005848154811061186457fe5b9060005260206000200160009054906101000a900473ffffffffffffffffffffffffffffffffffffffff1673ffffffffffffffffffffffffffffffffffffffff1673ffffffffffffffffffffffffffffffffffffffff168152602001908152602001600020600701548302600080600585815481106118df57fe5b9060005260206000200160009054906101000a900473ffffffffffffffffffffffffffffffffffffffff1673ffffffffffffffffffffffffffffffffffffffff1673ffffffffffffffffffffffffffffffffffffffff168152602001908152602001600020600901600082825401925050819055506000806005848154811061196457fe5b9060005260206000200160009054906101000a900473ffffffffffffffffffffffffffffffffffffffff1673ffffffffffffffffffffffffffffffffffffffff1673ffffffffffffffffffffffffffffffffffffffff16815260200190815260200160002060070154600080600484815481106119dd57fe5b9060005260206000200160009054906101000a900473ffffffffffffffffffffffffffffffffffffffff1673ffffffffffffffffffffffffffffffffffffffff1673ffffffffffffffffffffffffffffffffffffffff16815260200190815260200160002060020160008282540392505081905550600080600060058581548110611a6457fe5b9060005260206000200160009054906101000a900473ffffffffffffffffffffffffffffffffffffffff1673ffffffffffffffffffffffffffffffffffffffff1673ffffffffffffffffffffffffffffffffffffffff16815260200190815260200160002060070181905550611ae3565b5b8080600101915050610ed4565b508080600101915050610dc4565b5060008090505b600580549050811015611c9657600080600060058481548110611b1757fe5b9060005260206000200160009054906101000a900473ffffffffffffffffffffffffffffffffffffffff1673ffffffffffffffffffffffffffffffffffffffff1673ffffffffffffffffffffffffffffffffffffffff168152602001908152602001600020600701541115611c895760095460008060058481548110611b9957fe5b9060005260206000200160009054906101000a900473ffffffffffffffffffffffffffffffffffffffff1673ffffffffffffffffffffffffffffffffffffffff1673ffffffffffffffffffffffffffffffffffffffff168152602001908152602001600020600701540260008060058481548110611c1357fe5b9060005260206000200160009054906101000a900473ffffffffffffffffffffffffffffffffffffffff1673ffffffffffffffffffffffffffffffffffffffff1673ffffffffffffffffffffffffffffffffffffffff168152602001908152602001600020600901600082825401925050819055505b8080600101915050611af8565b5060008090505b60038054905081101561204657600080600060038481548110611cbc57fe5b9060005260206000200160009054906101000a900473ffffffffffffffffffffffffffffffffffffffff1673ffffffffffffffffffffffffffffffffffffffff1673ffffffffffffffffffffffffffffffffffffffff16815260200190815260200160002060020154111561203957600080600060038481548110611d3d57fe5b9060005260206000200160009054906101000a900473ffffffffffffffffffffffffffffffffffffffff1673ffffffffffffffffffffffffffffffffffffffff1673ffffffffffffffffffffffffffffffffffffffff168152602001908152602001600020600001541415611eb35760065460008060038481548110611dbf57fe5b9060005260206000200160009054906101000a900473ffffffffffffffffffffffffffffffffffffffff1673ffffffffffffffffffffffffffffffffffffffff1673ffffffffffffffffffffffffffffffffffffffff168152602001908152602001600020600201540260008060038481548110611e3957fe5b9060005260206000200160009054906101000a900473ffffffffffffffffffffffffffffffffffffffff1673ffffffffffffffffffffffffffffffffffffffff1673ffffffffffffffffffffffffffffffffffffffff16815260200190815260200160002060090160008282540392505081905550612038565b600160008060038481548110611ec557fe5b9060005260206000200160009054906101000a900473ffffffffffffffffffffffffffffffffffffffff1673ffffffffffffffffffffffffffffffffffffffff1673ffffffffffffffffffffffffffffffffffffffff1681526020019081526020016000206000015414156120375760075460008060038481548110611f4757fe5b9060005260206000200160009054906101000a900473ffffffffffffffffffffffffffffffffffffffff1673ffffffffffffffffffffffffffffffffffffffff1673ffffffffffffffffffffffffffffffffffffffff168152602001908152602001600020600201540260008060038481548110611fc157fe5b9060005260206000200160009054906101000a900473ffffffffffffffffffffffffffffffffffffffff1673ffffffffffffffffffffffffffffffffffffffff1673ffffffffffffffffffffffffffffffffffffffff168152602001908152602001600020600901600082825403925050819055505b5b5b8080600101915050611c9d565b505050565b600460006120599190612699565b600560006120679190612699565b60008090505b6003805490508110156122485760008060006003848154811061208c57fe5b9060005260206000200160009054906101000a900473ffffffffffffffffffffffffffffffffffffffff1673ffffffffffffffffffffffffffffffffffffffff1673ffffffffffffffffffffffffffffffffffffffff16815260200190815260200160002060030154111561219d5760046003828154811061210a57fe5b9060005260206000200160009054906101000a900473ffffffffffffffffffffffffffffffffffffffff1690806001815401808255809150509060018203906000526020600020016000909192909190916101000a81548173ffffffffffffffffffffffffffffffffffffffff021916908373ffffffffffffffffffffffffffffffffffffffff1602179055505061223b565b6005600382815481106121ac57fe5b9060005260206000200160009054906101000a900473ffffffffffffffffffffffffffffffffffffffff1690806001815401808255809150509060018203906000526020600020016000909192909190916101000a81548173ffffffffffffffffffffffffffffffffffffffff021916908373ffffffffffffffffffffffffffffffffffffffff160217905550505b808060010191505061206d565b5060008090505b60048054905081101561246f5760006001820190505b6004805490508110156124615760006004838154811061228157fe5b9060005260206000200160009054906101000a900473ffffffffffffffffffffffffffffffffffffffff169050600080600484815481106122be57fe5b9060005260206000200160009054906101000a900473ffffffffffffffffffffffffffffffffffffffff1673ffffffffffffffffffffffffffffffffffffffff1673ffffffffffffffffffffffffffffffffffffffff168152602001908152602001600020600301546000808373ffffffffffffffffffffffffffffffffffffffff1673ffffffffffffffffffffffffffffffffffffffff168152602001908152602001600020600301541015612453576004828154811061237c57fe5b9060005260206000200160009054906101000a900473ffffffffffffffffffffffffffffffffffffffff16600484815481106123b457fe5b9060005260206000200160006101000a81548173ffffffffffffffffffffffffffffffffffffffff021916908373ffffffffffffffffffffffffffffffffffffffff160217905550806004838154811061240a57fe5b9060005260206000200160006101000a81548173ffffffffffffffffffffffffffffffffffffffff021916908373ffffffffffffffffffffffffffffffffffffffff1602179055505b508080600101915050612265565b50808060010191505061224f565b5060008090505b6005805490508110156126965760006001820190505b600580549050811015612688576000600583815481106124a857fe5b9060005260206000200160009054906101000a900473ffffffffffffffffffffffffffffffffffffffff169050600080600584815481106124e557fe5b9060005260206000200160009054906101000a900473ffffffffffffffffffffffffffffffffffffffff1673ffffffffffffffffffffffffffffffffffffffff1673ffffffffffffffffffffffffffffffffffffffff168152602001908152602001600020600501546000808373ffffffffffffffffffffffffffffffffffffffff1673ffffffffffffffffffffffffffffffffffffffff16815260200190815260200160002060050154111561267a57600582815481106125a357fe5b9060005260206000200160009054906101000a900473ffffffffffffffffffffffffffffffffffffffff16600584815481106125db57fe5b9060005260206000200160006101000a81548173ffffffffffffffffffffffffffffffffffffffff021916908373ffffffffffffffffffffffffffffffffffffffff160217905550806005838154811061263157fe5b9060005260206000200160006101000a81548173ffffffffffffffffffffffffffffffffffffffff021916908373ffffffffffffffffffffffffffffffffffffffff1602179055505b50808060010191505061248c565b508080600101915050612476565b50565b50805460008255906000526020600020908101906126b791906126ba565b50565b6126dc91905b808211156126d85760008160009055506001016126c0565b5090565b9056fea265627a7a723158202ef5bc448384082a6a4709a2b360ea7ae7f890d7a79f0d8bd5dd988d437a2d4b64736f6c63430005100032",
  "source": "pragma solidity >=0.5.0 <0.9.0;\r\n\r\ncontract EnergyMarket {\r\n\r\n    struct User {\r\n        uint rate;                 // user rate utility plan (0 for flat rate, 1 for TOU)\r\n        uint demand_profile;       // indicator for which demand profile to assign for this user\r\n        uint demand;               // user demand in kWh\r\n        uint buy_bid_peak;         // user energy buying bid in c/kWh\r\n        uint buy_bid_offpeak;      // user energy buying bid in c/kWh\r\n        uint sell_bid_peak;        // user energy selling bid in c/kWh\r\n        uint sell_bid_offpeak;     // user energy selling bid in c/kWh\r\n        uint solar_excess;         // user excess solar energy (total solar energy - demand)\r\n        uint solar_capacity;       // user installed solar generation capacity in kW\r\n        uint balance;              // available balance for transactions\r\n    }\r\n\r\n    mapping(address => User) public users;\r\n    uint numUsers = 0;\r\n    uint last_solar = 0;\r\n\r\n    // Initialize arrays to split users placing buying bids and users placing selling bids\r\n    address[] all_users;\r\n    address[] buy_users;\r\n    address[] sell_users;\r\n\r\n    // Set electric utility related rates\r\n    uint flatRate = 15;         // rate to buy electricity from utility in c/kWh (flat rate customers)\r\n    uint TOUrate_peak = 25;     // peak rate to buy electricity from utility in c/kWh (TOU customers)\r\n    uint TOUrate_off = 2;       // off peak rate to buy electricity from utility in c/kWh (TOU customers)\r\n    uint fit_price = 8;         // feed-rate-tariff (price in c/kWh at which grid buys excess solar power)\r\n\r\n    // initialize demand assignment integer\r\n    uint demand_assign = 1;\r\n\r\n    // initialize solar irradiation value\r\n    uint irradiation = 1;\r\n\r\n    // add new user to the descentralized energy trading platform\r\n    function register(uint _rate, uint _solarCapacity) public {\r\n        users[msg.sender].rate = _rate;\r\n        users[msg.sender].solar_capacity = _solarCapacity;\r\n        users[msg.sender].demand_profile = demand_assign; demand_assign++;\r\n        users[msg.sender].balance = 10000;\r\n        all_users.push(msg.sender);\r\n        last_solar = users[msg.sender].rate;\r\n    }\r\n\r\n    // getter function for the information of a user\r\n    function getUserData(address toUser, uint _val) public view returns (uint) {\r\n        uint val;\r\n        if (_val == 0) {val = users[toUser].rate;}\r\n        else if (_val == 1) {val = users[toUser].demand_profile;}\r\n        else if (_val == 2) {val = users[toUser].demand;}\r\n        else if (_val == 3) {val = users[toUser].buy_bid_peak;}\r\n        else if (_val == 4) {val = users[toUser].sell_bid_peak;}\r\n        else if (_val == 5) {val = users[toUser].solar_capacity;}\r\n        else if (_val == 6) {val = users[toUser].solar_excess;}\r\n        else {val = users[toUser].balance;}\r\n        return val;\r\n    }\r\n\r\n    // lets registered user change his own bidding rules\r\n    function setBuyBid(address toUser, uint _buyBidPk) public {\r\n        users[toUser].buy_bid_peak = _buyBidPk;\r\n        users[toUser].sell_bid_peak = 0;\r\n    }\r\n    function setSellBid(address toUser, uint _sellBidPk) public {\r\n        users[toUser].sell_bid_peak = _sellBidPk;\r\n        users[toUser].buy_bid_peak = 0;\r\n    }\r\n\r\n    // place users buy and sell bids into two different arrays and sort them\r\n    function sortBids() private {\r\n        // reset arrays in case a user updated its bidding strategy. to be more efficient,\r\n        // we can add some indicator of whether or not a user updated his strategy and avoid\r\n        // this step completely\r\n        delete buy_users; delete sell_users;\r\n\r\n        // assign user addresses to corresponding buy bids and sell bids arrays\r\n        for (uint i = 0; i < all_users.length; i++) {\r\n            if (users[all_users[i]].buy_bid_peak > 0) {buy_users.push(all_users[i]);}\r\n            else {sell_users.push(all_users[i]);}\r\n        }\r\n\r\n        // descending sort of buy bids\r\n        for (uint i = 0; i < buy_users.length; i++){\r\n            for (uint j = i + 1; j < buy_users.length; j++) {\r\n                address temp = buy_users[i];\r\n                if (users[temp].buy_bid_peak < users[buy_users[j]].buy_bid_peak) {\r\n                    buy_users[i] = buy_users[j];\r\n                    buy_users[j] = temp;\r\n                }\r\n            }\r\n        }\r\n\r\n        // ascending sort of sell bids\r\n        for (uint i = 0; i < sell_users.length; i++){\r\n            for (uint j = i + 1; j < sell_users.length; j++) {\r\n                address temp = sell_users[i];\r\n                if (users[temp].sell_bid_peak > users[sell_users[j]].sell_bid_peak) {\r\n                    sell_users[i] = sell_users[j];\r\n                    sell_users[j] = temp;\r\n                }\r\n            }\r\n        }\r\n    }\r\n\r\n    // update demand and solar irradiation for current period\r\n    function updateDI(uint[] memory _demand, uint _irradiation) public {\r\n        irradiation = _irradiation;\r\n        for (uint i = 0; i < all_users.length; i++) {\r\n            users[all_users[i]].demand = _demand[users[all_users[i]].demand_profile];\r\n            if (users[all_users[i]].demand < users[all_users[i]].solar_capacity*irradiation) {\r\n                users[all_users[i]].solar_excess = users[all_users[i]].solar_capacity*irradiation - users[all_users[i]].demand;\r\n                users[all_users[i]].demand = 0;\r\n            } else {users[all_users[i]].solar_excess = 0;}\r\n        }\r\n    }\r\n\r\n    // clears market for current period\r\n    function clearMarket() public {\r\n        sortBids();\r\n        uint j_init = 0;\r\n        uint txprice = 0;\r\n        // P2P energy trading\r\n        for (uint i = 0; i < sell_users.length; i++) {\r\n            if (users[buy_users[i]].buy_bid_peak < users[sell_users[j_init]].sell_bid_peak) {break;}\r\n            for (uint j = j_init; j < buy_users.length; j++) {\r\n                if (users[buy_users[i]].buy_bid_peak < users[sell_users[j]].sell_bid_peak) {break;}\r\n                if (users[sell_users[i]].solar_excess >= users[buy_users[j]].demand) {\r\n                    txprice = (users[buy_users[j]].buy_bid_peak + users[sell_users[i]].sell_bid_peak)/2;\r\n                    users[buy_users[j]].balance -= txprice*users[buy_users[j]].demand;\r\n                    users[sell_users[i]].balance += txprice*users[buy_users[j]].demand;\r\n                    users[sell_users[i]].solar_excess -= users[buy_users[j]].demand;\r\n                    users[buy_users[j]].demand = 0;\r\n                    j_init++;\r\n                } else if (users[sell_users[i]].solar_excess < users[buy_users[j]].demand) {\r\n                    txprice = (users[buy_users[j]].buy_bid_peak + users[sell_users[i]].sell_bid_peak)/2;\r\n                    users[buy_users[j]].balance -= txprice*users[sell_users[i]].solar_excess;\r\n                    users[sell_users[i]].balance += txprice*users[sell_users[i]].solar_excess;\r\n                    users[buy_users[j]].demand -= users[sell_users[i]].solar_excess;\r\n                    users[sell_users[i]].solar_excess = 0;\r\n                    break;\r\n                }\r\n            }\r\n        }\r\n        // Settle remaining energy balances with the grid\r\n        for (uint i = 0; i < sell_users.length; i++) {\r\n            if (users[sell_users[i]].solar_excess > 0) {\r\n                users[sell_users[i]].balance += users[sell_users[i]].solar_excess*fit_price;\r\n            }\r\n        }\r\n        for (uint i = 0; i < all_users.length; i++) {\r\n            if (users[all_users[i]].demand > 0) {\r\n                if (users[all_users[i]].rate == 0){users[all_users[i]].balance -= users[all_users[i]].demand*flatRate;}\r\n                else if (users[all_users[i]].rate == 1){users[all_users[i]].balance -= users[all_users[i]].demand*TOUrate_peak;}\r\n            }\r\n        }\r\n    }\r\n}",
  "sourcePath": "C:\\Users\\jjjaw\\OneDrive\\Documents\\Columbia\\02_Spring2022\\Blockchain\\Project\\p2p-energy-market\\contracts\\EnergyMarket.sol",
  "compiler": {
    "name": "solc",
    "version": "0.5.16+commit.9c3226ce.Emscripten.clang"
  },
  "schemaVersion": "3.4.7",
  "updatedAt": "2022-05-02T15:17:19.259Z",
  "networkType": "ethereum",
  "devdoc": {
    "methods": {}
  },
  "userdoc": {
    "methods": {}
  }
}