{
  "contractName": "EnergyMarket",
  "abi": [
    {
      "constant": true,
      "inputs": [
        {
          "internalType": "address",
          "name": "",
          "type": "address"
        }
      ],
      "name": "registered_user",
      "outputs": [
        {
          "internalType": "bool",
          "name": "",
          "type": "bool"
        }
      ],
      "payable": false,
      "stateMutability": "view",
      "type": "function"
    },
    {
      "constant": true,
      "inputs": [
        {
          "internalType": "address",
          "name": "",
          "type": "address"
        }
      ],
      "name": "users",
      "outputs": [
        {
          "internalType": "uint256",
          "name": "rate",
          "type": "uint256"
        },
        {
          "internalType": "uint256",
          "name": "demand",
          "type": "uint256"
        },
        {
          "internalType": "uint256",
          "name": "battery",
          "type": "uint256"
        },
        {
          "internalType": "uint256",
          "name": "battery_charge",
          "type": "uint256"
        },
        {
          "internalType": "uint256",
          "name": "bid_peak",
          "type": "uint256"
        },
        {
          "internalType": "uint256",
          "name": "bid_offpeak",
          "type": "uint256"
        },
        {
          "internalType": "uint256",
          "name": "ask_peak",
          "type": "uint256"
        },
        {
          "internalType": "uint256",
          "name": "ask_offpeak",
          "type": "uint256"
        },
        {
          "internalType": "uint256",
          "name": "energy_excess",
          "type": "uint256"
        },
        {
          "internalType": "uint256",
          "name": "solar_capacity",
          "type": "uint256"
        },
        {
          "internalType": "uint256",
          "name": "solar_excess",
          "type": "uint256"
        },
        {
          "internalType": "uint256",
          "name": "balance",
          "type": "uint256"
        }
      ],
      "payable": false,
      "stateMutability": "view",
      "type": "function"
    },
    {
      "constant": false,
      "inputs": [
        {
          "internalType": "uint256",
          "name": "_rate",
          "type": "uint256"
        },
        {
          "internalType": "uint256",
          "name": "_solarCapacity",
          "type": "uint256"
        },
        {
          "internalType": "uint256",
          "name": "_battery",
          "type": "uint256"
        }
      ],
      "name": "register",
      "outputs": [],
      "payable": false,
      "stateMutability": "nonpayable",
      "type": "function"
    },
    {
      "constant": false,
      "inputs": [
        {
          "internalType": "uint256",
          "name": "_BidPk",
          "type": "uint256"
        },
        {
          "internalType": "uint256",
          "name": "_BidOffPk",
          "type": "uint256"
        },
        {
          "internalType": "uint256",
          "name": "_AskPk",
          "type": "uint256"
        },
        {
          "internalType": "uint256",
          "name": "_AskOffPk",
          "type": "uint256"
        }
      ],
      "name": "setBidAsk",
      "outputs": [],
      "payable": false,
      "stateMutability": "nonpayable",
      "type": "function"
    },
    {
      "constant": true,
      "inputs": [],
      "name": "userData",
      "outputs": [
        {
          "internalType": "uint256[12]",
          "name": "",
          "type": "uint256[12]"
        }
      ],
      "payable": false,
      "stateMutability": "view",
      "type": "function"
    },
    {
      "constant": false,
      "inputs": [
        {
          "internalType": "uint256[]",
          "name": "_demand",
          "type": "uint256[]"
        },
        {
          "internalType": "uint256",
          "name": "_irradiance",
          "type": "uint256"
        },
        {
          "internalType": "uint256",
          "name": "_periodtype",
          "type": "uint256"
        }
      ],
      "name": "clearMarket",
      "outputs": [],
      "payable": false,
      "stateMutability": "nonpayable",
      "type": "function"
    }
  ],
  "bytecode": "0x608060405260006002556014600655601e6007556003600855600a6009556000600a55612ee0600b55610fa0600c5534801561003a57600080fd5b506151d68061004a6000396000f3fe608060405234801561001057600080fd5b50600436106100625760003560e01c80631c8314271461006757806342041af7146100c357806369c9df8e1461018f578063a87430ba146101db578063bea6998f14610280578063faa5c564146102c6575b600080fd5b6100a96004803603602081101561007d57600080fd5b81019080803573ffffffffffffffffffffffffffffffffffffffff169060200190929190505050610308565b604051808215151515815260200191505060405180910390f35b61018d600480360360608110156100d957600080fd5b81019080803590602001906401000000008111156100f657600080fd5b82018360208201111561010857600080fd5b8035906020019184602083028401116401000000008311171561012a57600080fd5b919080806020026020016040519081016040528093929190818152602001838360200280828437600081840152601f19601f8201169050808301925050505050505091929192908035906020019092919080359060200190929190505050610328565b005b6101d9600480360360808110156101a557600080fd5b810190808035906020019092919080359060200190929190803590602001909291908035906020019092919050505061283f565b005b61021d600480360360208110156101f157600080fd5b81019080803573ffffffffffffffffffffffffffffffffffffffff16906020019092919050505061295d565b604051808d81526020018c81526020018b81526020018a81526020018981526020018881526020018781526020018681526020018581526020018481526020018381526020018281526020019c5050505050505050505050505060405180910390f35b6102886129bd565b6040518082600c60200280838360005b838110156102b3578082015181840152602081019050610298565b5050505090500191505060405180910390f35b610306600480360360608110156102dc57600080fd5b81019080803590602001909291908035906020019092919080359060200190929190505050612df4565b005b60016020528060005260406000206000915054906101000a900460ff1681565b6103338383836130f0565b61033b6144a9565b600080905060008090506001600a5414156110895760008090505b600580549050811015611083576000806005858154811061037357fe5b9060005260206000200160009054906101000a900473ffffffffffffffffffffffffffffffffffffffff1673ffffffffffffffffffffffffffffffffffffffff1673ffffffffffffffffffffffffffffffffffffffff16815260200190815260200160002060060154600080600484815481106103ec57fe5b9060005260206000200160009054906101000a900473ffffffffffffffffffffffffffffffffffffffff1673ffffffffffffffffffffffffffffffffffffffff1673ffffffffffffffffffffffffffffffffffffffff16815260200190815260200160002060040154101561046057611083565b60008390505b600480549050811015611075576000806005838154811061048357fe5b9060005260206000200160009054906101000a900473ffffffffffffffffffffffffffffffffffffffff1673ffffffffffffffffffffffffffffffffffffffff1673ffffffffffffffffffffffffffffffffffffffff16815260200190815260200160002060060154600080600485815481106104fc57fe5b9060005260206000200160009054906101000a900473ffffffffffffffffffffffffffffffffffffffff1673ffffffffffffffffffffffffffffffffffffffff1673ffffffffffffffffffffffffffffffffffffffff16815260200190815260200160002060040154101561057057611075565b6000806004838154811061058057fe5b9060005260206000200160009054906101000a900473ffffffffffffffffffffffffffffffffffffffff1673ffffffffffffffffffffffffffffffffffffffff1673ffffffffffffffffffffffffffffffffffffffff16815260200190815260200160002060010154600080600585815481106105f957fe5b9060005260206000200160009054906101000a900473ffffffffffffffffffffffffffffffffffffffff1673ffffffffffffffffffffffffffffffffffffffff1673ffffffffffffffffffffffffffffffffffffffff1681526020019081526020016000206008015410610aef5760026000806005858154811061067957fe5b9060005260206000200160009054906101000a900473ffffffffffffffffffffffffffffffffffffffff1673ffffffffffffffffffffffffffffffffffffffff1673ffffffffffffffffffffffffffffffffffffffff16815260200190815260200160002060060154600080600485815481106106f257fe5b9060005260206000200160009054906101000a900473ffffffffffffffffffffffffffffffffffffffff1673ffffffffffffffffffffffffffffffffffffffff1673ffffffffffffffffffffffffffffffffffffffff16815260200190815260200160002060040154018161076357fe5b0492506000806004838154811061077657fe5b9060005260206000200160009054906101000a900473ffffffffffffffffffffffffffffffffffffffff1673ffffffffffffffffffffffffffffffffffffffff1673ffffffffffffffffffffffffffffffffffffffff168152602001908152602001600020600101548302600080600484815481106107f157fe5b9060005260206000200160009054906101000a900473ffffffffffffffffffffffffffffffffffffffff1673ffffffffffffffffffffffffffffffffffffffff1673ffffffffffffffffffffffffffffffffffffffff168152602001908152602001600020600b01600082825403925050819055506000806004838154811061087657fe5b9060005260206000200160009054906101000a900473ffffffffffffffffffffffffffffffffffffffff1673ffffffffffffffffffffffffffffffffffffffff1673ffffffffffffffffffffffffffffffffffffffff168152602001908152602001600020600101548302600080600585815481106108f157fe5b9060005260206000200160009054906101000a900473ffffffffffffffffffffffffffffffffffffffff1673ffffffffffffffffffffffffffffffffffffffff1673ffffffffffffffffffffffffffffffffffffffff168152602001908152602001600020600b01600082825401925050819055506000806004838154811061097657fe5b9060005260206000200160009054906101000a900473ffffffffffffffffffffffffffffffffffffffff1673ffffffffffffffffffffffffffffffffffffffff1673ffffffffffffffffffffffffffffffffffffffff16815260200190815260200160002060010154600080600585815481106109ef57fe5b9060005260206000200160009054906101000a900473ffffffffffffffffffffffffffffffffffffffff1673ffffffffffffffffffffffffffffffffffffffff1673ffffffffffffffffffffffffffffffffffffffff16815260200190815260200160002060080160008282540392505081905550600080600060048481548110610a7657fe5b9060005260206000200160009054906101000a900473ffffffffffffffffffffffffffffffffffffffff1673ffffffffffffffffffffffffffffffffffffffff1673ffffffffffffffffffffffffffffffffffffffff168152602001908152602001600020600101819055508380600101945050611068565b60008060048381548110610aff57fe5b9060005260206000200160009054906101000a900473ffffffffffffffffffffffffffffffffffffffff1673ffffffffffffffffffffffffffffffffffffffff1673ffffffffffffffffffffffffffffffffffffffff1681526020019081526020016000206001015460008060058581548110610b7857fe5b9060005260206000200160009054906101000a900473ffffffffffffffffffffffffffffffffffffffff1673ffffffffffffffffffffffffffffffffffffffff1673ffffffffffffffffffffffffffffffffffffffff16815260200190815260200160002060080154101561106757600260008060058581548110610bf957fe5b9060005260206000200160009054906101000a900473ffffffffffffffffffffffffffffffffffffffff1673ffffffffffffffffffffffffffffffffffffffff1673ffffffffffffffffffffffffffffffffffffffff1681526020019081526020016000206006015460008060048581548110610c7257fe5b9060005260206000200160009054906101000a900473ffffffffffffffffffffffffffffffffffffffff1673ffffffffffffffffffffffffffffffffffffffff1673ffffffffffffffffffffffffffffffffffffffff168152602001908152602001600020600401540181610ce357fe5b04925060008060058481548110610cf657fe5b9060005260206000200160009054906101000a900473ffffffffffffffffffffffffffffffffffffffff1673ffffffffffffffffffffffffffffffffffffffff1673ffffffffffffffffffffffffffffffffffffffff16815260200190815260200160002060080154830260008060048481548110610d7157fe5b9060005260206000200160009054906101000a900473ffffffffffffffffffffffffffffffffffffffff1673ffffffffffffffffffffffffffffffffffffffff1673ffffffffffffffffffffffffffffffffffffffff168152602001908152602001600020600b016000828254039250508190555060008060058481548110610df657fe5b9060005260206000200160009054906101000a900473ffffffffffffffffffffffffffffffffffffffff1673ffffffffffffffffffffffffffffffffffffffff1673ffffffffffffffffffffffffffffffffffffffff16815260200190815260200160002060080154830260008060058581548110610e7157fe5b9060005260206000200160009054906101000a900473ffffffffffffffffffffffffffffffffffffffff1673ffffffffffffffffffffffffffffffffffffffff1673ffffffffffffffffffffffffffffffffffffffff168152602001908152602001600020600b016000828254019250508190555060008060058481548110610ef657fe5b9060005260206000200160009054906101000a900473ffffffffffffffffffffffffffffffffffffffff1673ffffffffffffffffffffffffffffffffffffffff1673ffffffffffffffffffffffffffffffffffffffff1681526020019081526020016000206008015460008060048481548110610f6f57fe5b9060005260206000200160009054906101000a900473ffffffffffffffffffffffffffffffffffffffff1673ffffffffffffffffffffffffffffffffffffffff1673ffffffffffffffffffffffffffffffffffffffff16815260200190815260200160002060010160008282540392505081905550600080600060058581548110610ff657fe5b9060005260206000200160009054906101000a900473ffffffffffffffffffffffffffffffffffffffff1673ffffffffffffffffffffffffffffffffffffffff1673ffffffffffffffffffffffffffffffffffffffff16815260200190815260200160002060080181905550611075565b5b8080600101915050610466565b508080600101915050610356565b50611dbe565b60008090505b600580549050811015611dbc57600080600585815481106110ac57fe5b9060005260206000200160009054906101000a900473ffffffffffffffffffffffffffffffffffffffff1673ffffffffffffffffffffffffffffffffffffffff1673ffffffffffffffffffffffffffffffffffffffff168152602001908152602001600020600701546000806004848154811061112557fe5b9060005260206000200160009054906101000a900473ffffffffffffffffffffffffffffffffffffffff1673ffffffffffffffffffffffffffffffffffffffff1673ffffffffffffffffffffffffffffffffffffffff16815260200190815260200160002060050154101561119957611dbc565b60008390505b600480549050811015611dae57600080600583815481106111bc57fe5b9060005260206000200160009054906101000a900473ffffffffffffffffffffffffffffffffffffffff1673ffffffffffffffffffffffffffffffffffffffff1673ffffffffffffffffffffffffffffffffffffffff168152602001908152602001600020600701546000806004858154811061123557fe5b9060005260206000200160009054906101000a900473ffffffffffffffffffffffffffffffffffffffff1673ffffffffffffffffffffffffffffffffffffffff1673ffffffffffffffffffffffffffffffffffffffff1681526020019081526020016000206005015410156112a957611dae565b600080600483815481106112b957fe5b9060005260206000200160009054906101000a900473ffffffffffffffffffffffffffffffffffffffff1673ffffffffffffffffffffffffffffffffffffffff1673ffffffffffffffffffffffffffffffffffffffff168152602001908152602001600020600101546000806005858154811061133257fe5b9060005260206000200160009054906101000a900473ffffffffffffffffffffffffffffffffffffffff1673ffffffffffffffffffffffffffffffffffffffff1673ffffffffffffffffffffffffffffffffffffffff1681526020019081526020016000206008015410611828576002600080600585815481106113b257fe5b9060005260206000200160009054906101000a900473ffffffffffffffffffffffffffffffffffffffff1673ffffffffffffffffffffffffffffffffffffffff1673ffffffffffffffffffffffffffffffffffffffff168152602001908152602001600020600701546000806004858154811061142b57fe5b9060005260206000200160009054906101000a900473ffffffffffffffffffffffffffffffffffffffff1673ffffffffffffffffffffffffffffffffffffffff1673ffffffffffffffffffffffffffffffffffffffff16815260200190815260200160002060050154018161149c57fe5b049250600080600483815481106114af57fe5b9060005260206000200160009054906101000a900473ffffffffffffffffffffffffffffffffffffffff1673ffffffffffffffffffffffffffffffffffffffff1673ffffffffffffffffffffffffffffffffffffffff1681526020019081526020016000206001015483026000806004848154811061152a57fe5b9060005260206000200160009054906101000a900473ffffffffffffffffffffffffffffffffffffffff1673ffffffffffffffffffffffffffffffffffffffff1673ffffffffffffffffffffffffffffffffffffffff168152602001908152602001600020600b0160008282540392505081905550600080600483815481106115af57fe5b9060005260206000200160009054906101000a900473ffffffffffffffffffffffffffffffffffffffff1673ffffffffffffffffffffffffffffffffffffffff1673ffffffffffffffffffffffffffffffffffffffff1681526020019081526020016000206001015483026000806005858154811061162a57fe5b9060005260206000200160009054906101000a900473ffffffffffffffffffffffffffffffffffffffff1673ffffffffffffffffffffffffffffffffffffffff1673ffffffffffffffffffffffffffffffffffffffff168152602001908152602001600020600b0160008282540192505081905550600080600483815481106116af57fe5b9060005260206000200160009054906101000a900473ffffffffffffffffffffffffffffffffffffffff1673ffffffffffffffffffffffffffffffffffffffff1673ffffffffffffffffffffffffffffffffffffffff168152602001908152602001600020600101546000806005858154811061172857fe5b9060005260206000200160009054906101000a900473ffffffffffffffffffffffffffffffffffffffff1673ffffffffffffffffffffffffffffffffffffffff1673ffffffffffffffffffffffffffffffffffffffff168152602001908152602001600020600801600082825403925050819055506000806000600484815481106117af57fe5b9060005260206000200160009054906101000a900473ffffffffffffffffffffffffffffffffffffffff1673ffffffffffffffffffffffffffffffffffffffff1673ffffffffffffffffffffffffffffffffffffffff168152602001908152602001600020600101819055508380600101945050611da1565b6000806004838154811061183857fe5b9060005260206000200160009054906101000a900473ffffffffffffffffffffffffffffffffffffffff1673ffffffffffffffffffffffffffffffffffffffff1673ffffffffffffffffffffffffffffffffffffffff16815260200190815260200160002060010154600080600585815481106118b157fe5b9060005260206000200160009054906101000a900473ffffffffffffffffffffffffffffffffffffffff1673ffffffffffffffffffffffffffffffffffffffff1673ffffffffffffffffffffffffffffffffffffffff168152602001908152602001600020600801541015611da05760026000806005858154811061193257fe5b9060005260206000200160009054906101000a900473ffffffffffffffffffffffffffffffffffffffff1673ffffffffffffffffffffffffffffffffffffffff1673ffffffffffffffffffffffffffffffffffffffff16815260200190815260200160002060070154600080600485815481106119ab57fe5b9060005260206000200160009054906101000a900473ffffffffffffffffffffffffffffffffffffffff1673ffffffffffffffffffffffffffffffffffffffff1673ffffffffffffffffffffffffffffffffffffffff168152602001908152602001600020600501540181611a1c57fe5b04925060008060058481548110611a2f57fe5b9060005260206000200160009054906101000a900473ffffffffffffffffffffffffffffffffffffffff1673ffffffffffffffffffffffffffffffffffffffff1673ffffffffffffffffffffffffffffffffffffffff16815260200190815260200160002060080154830260008060048481548110611aaa57fe5b9060005260206000200160009054906101000a900473ffffffffffffffffffffffffffffffffffffffff1673ffffffffffffffffffffffffffffffffffffffff1673ffffffffffffffffffffffffffffffffffffffff168152602001908152602001600020600b016000828254039250508190555060008060058481548110611b2f57fe5b9060005260206000200160009054906101000a900473ffffffffffffffffffffffffffffffffffffffff1673ffffffffffffffffffffffffffffffffffffffff1673ffffffffffffffffffffffffffffffffffffffff16815260200190815260200160002060080154830260008060058581548110611baa57fe5b9060005260206000200160009054906101000a900473ffffffffffffffffffffffffffffffffffffffff1673ffffffffffffffffffffffffffffffffffffffff1673ffffffffffffffffffffffffffffffffffffffff168152602001908152602001600020600b016000828254019250508190555060008060058481548110611c2f57fe5b9060005260206000200160009054906101000a900473ffffffffffffffffffffffffffffffffffffffff1673ffffffffffffffffffffffffffffffffffffffff1673ffffffffffffffffffffffffffffffffffffffff1681526020019081526020016000206008015460008060048481548110611ca857fe5b9060005260206000200160009054906101000a900473ffffffffffffffffffffffffffffffffffffffff1673ffffffffffffffffffffffffffffffffffffffff1673ffffffffffffffffffffffffffffffffffffffff16815260200190815260200160002060010160008282540392505081905550600080600060058581548110611d2f57fe5b9060005260206000200160009054906101000a900473ffffffffffffffffffffffffffffffffffffffff1673ffffffffffffffffffffffffffffffffffffffff1673ffffffffffffffffffffffffffffffffffffffff16815260200190815260200160002060080181905550611dae565b5b808060010191505061119f565b50808060010191505061108f565b505b60008090505b6005805490508110156122e257600080600060058481548110611de357fe5b9060005260206000200160009054906101000a900473ffffffffffffffffffffffffffffffffffffffff1673ffffffffffffffffffffffffffffffffffffffff1673ffffffffffffffffffffffffffffffffffffffff16815260200190815260200160002060080154118015611f49575060008060058381548110611e6457fe5b9060005260206000200160009054906101000a900473ffffffffffffffffffffffffffffffffffffffff1673ffffffffffffffffffffffffffffffffffffffff1673ffffffffffffffffffffffffffffffffffffffff1681526020019081526020016000206008015460008060058481548110611edd57fe5b9060005260206000200160009054906101000a900473ffffffffffffffffffffffffffffffffffffffff1673ffffffffffffffffffffffffffffffffffffffff1673ffffffffffffffffffffffffffffffffffffffff168152602001908152602001600020600a015411155b156120555760095460008060058481548110611f6157fe5b9060005260206000200160009054906101000a900473ffffffffffffffffffffffffffffffffffffffff1673ffffffffffffffffffffffffffffffffffffffff1673ffffffffffffffffffffffffffffffffffffffff168152602001908152602001600020600a01540260008060058481548110611fdb57fe5b9060005260206000200160009054906101000a900473ffffffffffffffffffffffffffffffffffffffff1673ffffffffffffffffffffffffffffffffffffffff1673ffffffffffffffffffffffffffffffffffffffff168152602001908152602001600020600b01600082825401925050819055506122d5565b60008060006005848154811061206757fe5b9060005260206000200160009054906101000a900473ffffffffffffffffffffffffffffffffffffffff1673ffffffffffffffffffffffffffffffffffffffff1673ffffffffffffffffffffffffffffffffffffffff168152602001908152602001600020600801541180156121cc5750600080600583815481106120e857fe5b9060005260206000200160009054906101000a900473ffffffffffffffffffffffffffffffffffffffff1673ffffffffffffffffffffffffffffffffffffffff1673ffffffffffffffffffffffffffffffffffffffff168152602001908152602001600020600801546000806005848154811061216157fe5b9060005260206000200160009054906101000a900473ffffffffffffffffffffffffffffffffffffffff1673ffffffffffffffffffffffffffffffffffffffff1673ffffffffffffffffffffffffffffffffffffffff168152602001908152602001600020600a0154115b156122d457600954600080600584815481106121e457fe5b9060005260206000200160009054906101000a900473ffffffffffffffffffffffffffffffffffffffff1673ffffffffffffffffffffffffffffffffffffffff1673ffffffffffffffffffffffffffffffffffffffff16815260200190815260200160002060080154026000806005848154811061225e57fe5b9060005260206000200160009054906101000a900473ffffffffffffffffffffffffffffffffffffffff1673ffffffffffffffffffffffffffffffffffffffff1673ffffffffffffffffffffffffffffffffffffffff168152602001908152602001600020600b01600082825401925050819055505b5b8080600101915050611dc4565b5060008090505b6003805490508110156128375760008060006003848154811061230857fe5b9060005260206000200160009054906101000a900473ffffffffffffffffffffffffffffffffffffffff1673ffffffffffffffffffffffffffffffffffffffff1673ffffffffffffffffffffffffffffffffffffffff16815260200190815260200160002060010154111561282a5760008060006003848154811061238957fe5b9060005260206000200160009054906101000a900473ffffffffffffffffffffffffffffffffffffffff1673ffffffffffffffffffffffffffffffffffffffff1673ffffffffffffffffffffffffffffffffffffffff1681526020019081526020016000206000015414156124ff576006546000806003848154811061240b57fe5b9060005260206000200160009054906101000a900473ffffffffffffffffffffffffffffffffffffffff1673ffffffffffffffffffffffffffffffffffffffff1673ffffffffffffffffffffffffffffffffffffffff16815260200190815260200160002060010154026000806003848154811061248557fe5b9060005260206000200160009054906101000a900473ffffffffffffffffffffffffffffffffffffffff1673ffffffffffffffffffffffffffffffffffffffff1673ffffffffffffffffffffffffffffffffffffffff168152602001908152602001600020600b0160008282540392505081905550612829565b60016000806003848154811061251157fe5b9060005260206000200160009054906101000a900473ffffffffffffffffffffffffffffffffffffffff1673ffffffffffffffffffffffffffffffffffffffff1673ffffffffffffffffffffffffffffffffffffffff1681526020019081526020016000206000015414801561258957506001600a54145b1561269557600754600080600384815481106125a157fe5b9060005260206000200160009054906101000a900473ffffffffffffffffffffffffffffffffffffffff1673ffffffffffffffffffffffffffffffffffffffff1673ffffffffffffffffffffffffffffffffffffffff16815260200190815260200160002060010154026000806003848154811061261b57fe5b9060005260206000200160009054906101000a900473ffffffffffffffffffffffffffffffffffffffff1673ffffffffffffffffffffffffffffffffffffffff1673ffffffffffffffffffffffffffffffffffffffff168152602001908152602001600020600b0160008282540392505081905550612828565b6001600080600384815481106126a757fe5b9060005260206000200160009054906101000a900473ffffffffffffffffffffffffffffffffffffffff1673ffffffffffffffffffffffffffffffffffffffff1673ffffffffffffffffffffffffffffffffffffffff1681526020019081526020016000206000015414801561271f57506000600a54145b15612827576008546000806003848154811061273757fe5b9060005260206000200160009054906101000a900473ffffffffffffffffffffffffffffffffffffffff1673ffffffffffffffffffffffffffffffffffffffff1673ffffffffffffffffffffffffffffffffffffffff1681526020019081526020016000206001015402600080600384815481106127b157fe5b9060005260206000200160009054906101000a900473ffffffffffffffffffffffffffffffffffffffff1673ffffffffffffffffffffffffffffffffffffffff1673ffffffffffffffffffffffffffffffffffffffff168152602001908152602001600020600b01600082825403925050819055505b5b5b5b80806001019150506122e9565b505050505050565b836000803373ffffffffffffffffffffffffffffffffffffffff1673ffffffffffffffffffffffffffffffffffffffff16815260200190815260200160002060040181905550826000803373ffffffffffffffffffffffffffffffffffffffff1673ffffffffffffffffffffffffffffffffffffffff16815260200190815260200160002060050181905550816000803373ffffffffffffffffffffffffffffffffffffffff1673ffffffffffffffffffffffffffffffffffffffff16815260200190815260200160002060060181905550806000803373ffffffffffffffffffffffffffffffffffffffff1673ffffffffffffffffffffffffffffffffffffffff1681526020019081526020016000206007018190555050505050565b600060205280600052604060002060009150905080600001549080600101549080600201549080600301549080600401549080600501549080600601549080600701549080600801549080600901549080600a01549080600b015490508c565b6129c5615138565b6129cd615138565b6000803373ffffffffffffffffffffffffffffffffffffffff1673ffffffffffffffffffffffffffffffffffffffff16815260200190815260200160002060000154816000600c8110612a1c57fe5b6020020181815250506000803373ffffffffffffffffffffffffffffffffffffffff1673ffffffffffffffffffffffffffffffffffffffff16815260200190815260200160002060010154816001600c8110612a7457fe5b6020020181815250506000803373ffffffffffffffffffffffffffffffffffffffff1673ffffffffffffffffffffffffffffffffffffffff16815260200190815260200160002060020154816002600c8110612acc57fe5b6020020181815250506000803373ffffffffffffffffffffffffffffffffffffffff1673ffffffffffffffffffffffffffffffffffffffff16815260200190815260200160002060030154816003600c8110612b2457fe5b6020020181815250506000803373ffffffffffffffffffffffffffffffffffffffff1673ffffffffffffffffffffffffffffffffffffffff16815260200190815260200160002060040154816004600c8110612b7c57fe5b6020020181815250506000803373ffffffffffffffffffffffffffffffffffffffff1673ffffffffffffffffffffffffffffffffffffffff16815260200190815260200160002060050154816005600c8110612bd457fe5b6020020181815250506000803373ffffffffffffffffffffffffffffffffffffffff1673ffffffffffffffffffffffffffffffffffffffff16815260200190815260200160002060060154816006600c8110612c2c57fe5b6020020181815250506000803373ffffffffffffffffffffffffffffffffffffffff1673ffffffffffffffffffffffffffffffffffffffff16815260200190815260200160002060070154816007600c8110612c8457fe5b6020020181815250506000803373ffffffffffffffffffffffffffffffffffffffff1673ffffffffffffffffffffffffffffffffffffffff16815260200190815260200160002060080154816008600c8110612cdc57fe5b6020020181815250506000803373ffffffffffffffffffffffffffffffffffffffff1673ffffffffffffffffffffffffffffffffffffffff16815260200190815260200160002060090154816009600c8110612d3457fe5b6020020181815250506000803373ffffffffffffffffffffffffffffffffffffffff1673ffffffffffffffffffffffffffffffffffffffff168152602001908152602001600020600a015481600a600c8110612d8c57fe5b6020020181815250506000803373ffffffffffffffffffffffffffffffffffffffff1673ffffffffffffffffffffffffffffffffffffffff168152602001908152602001600020600b015481600b600c8110612de457fe5b6020020181815250508091505090565b60001515600160003373ffffffffffffffffffffffffffffffffffffffff1673ffffffffffffffffffffffffffffffffffffffff16815260200190815260200160002060009054906101000a900460ff16151514612eba576040517f08c379a00000000000000000000000000000000000000000000000000000000081526004018080602001828103825260178152602001807f5573657220616c7265616479207265676973746572656400000000000000000081525060200191505060405180910390fd5b826000803373ffffffffffffffffffffffffffffffffffffffff1673ffffffffffffffffffffffffffffffffffffffff16815260200190815260200160002060000181905550816000803373ffffffffffffffffffffffffffffffffffffffff1673ffffffffffffffffffffffffffffffffffffffff16815260200190815260200160002060090181905550806000803373ffffffffffffffffffffffffffffffffffffffff1673ffffffffffffffffffffffffffffffffffffffff1681526020019081526020016000206002018190555060008060003373ffffffffffffffffffffffffffffffffffffffff1673ffffffffffffffffffffffffffffffffffffffff1681526020019081526020016000206003018190555062e4e1c06000803373ffffffffffffffffffffffffffffffffffffffff1673ffffffffffffffffffffffffffffffffffffffff168152602001908152602001600020600b018190555060018060003373ffffffffffffffffffffffffffffffffffffffff1673ffffffffffffffffffffffffffffffffffffffff16815260200190815260200160002060006101000a81548160ff02191690831515021790555060033390806001815401808255809150509060018203906000526020600020016000909192909190916101000a81548173ffffffffffffffffffffffffffffffffffffffff021916908373ffffffffffffffffffffffffffffffffffffffff16021790555050600260008154809291906001019190505550505050565b80600a819055506000806001600a541415613bc25760008090505b600380549050811015613bbc5785818151811061312457fe5b60200260200101516000806003848154811061313c57fe5b9060005260206000200160009054906101000a900473ffffffffffffffffffffffffffffffffffffffff1673ffffffffffffffffffffffffffffffffffffffff1673ffffffffffffffffffffffffffffffffffffffff168152602001908152602001600020600101819055506103e885600080600385815481106131bc57fe5b9060005260206000200160009054906101000a900473ffffffffffffffffffffffffffffffffffffffff1673ffffffffffffffffffffffffffffffffffffffff1673ffffffffffffffffffffffffffffffffffffffff1681526020019081526020016000206009015402029250600c546000806003848154811061323c57fe5b9060005260206000200160009054906101000a900473ffffffffffffffffffffffffffffffffffffffff1673ffffffffffffffffffffffffffffffffffffffff1673ffffffffffffffffffffffffffffffffffffffff16815260200190815260200160002060030154106132b457600c549150613330565b600080600383815481106132c457fe5b9060005260206000200160009054906101000a900473ffffffffffffffffffffffffffffffffffffffff1673ffffffffffffffffffffffffffffffffffffffff1673ffffffffffffffffffffffffffffffffffffffff1681526020019081526020016000206003015491505b816000806003848154811061334157fe5b9060005260206000200160009054906101000a900473ffffffffffffffffffffffffffffffffffffffff1673ffffffffffffffffffffffffffffffffffffffff1673ffffffffffffffffffffffffffffffffffffffff16815260200190815260200160002060010154116136a857600080600383815481106133bf57fe5b9060005260206000200160009054906101000a900473ffffffffffffffffffffffffffffffffffffffff1673ffffffffffffffffffffffffffffffffffffffff1673ffffffffffffffffffffffffffffffffffffffff16815260200190815260200160002060010154828401036000806003848154811061343c57fe5b9060005260206000200160009054906101000a900473ffffffffffffffffffffffffffffffffffffffff1673ffffffffffffffffffffffffffffffffffffffff1673ffffffffffffffffffffffffffffffffffffffff1681526020019081526020016000206008018190555082600080600384815481106134b957fe5b9060005260206000200160009054906101000a900473ffffffffffffffffffffffffffffffffffffffff1673ffffffffffffffffffffffffffffffffffffffff1673ffffffffffffffffffffffffffffffffffffffff168152602001908152602001600020600a01819055506000806003838154811061353557fe5b9060005260206000200160009054906101000a900473ffffffffffffffffffffffffffffffffffffffff1673ffffffffffffffffffffffffffffffffffffffff1673ffffffffffffffffffffffffffffffffffffffff168152602001908152602001600020600101548203600080600384815481106135b057fe5b9060005260206000200160009054906101000a900473ffffffffffffffffffffffffffffffffffffffff1673ffffffffffffffffffffffffffffffffffffffff1673ffffffffffffffffffffffffffffffffffffffff1681526020019081526020016000206003016000828254039250508190555060008060006003848154811061363757fe5b9060005260206000200160009054906101000a900473ffffffffffffffffffffffffffffffffffffffff1673ffffffffffffffffffffffffffffffffffffffff1673ffffffffffffffffffffffffffffffffffffffff16815260200190815260200160002060010181905550613baf565b818301600080600384815481106136bb57fe5b9060005260206000200160009054906101000a900473ffffffffffffffffffffffffffffffffffffffff1673ffffffffffffffffffffffffffffffffffffffff1673ffffffffffffffffffffffffffffffffffffffff168152602001908152602001600020600101541015613a21576000806003838154811061373a57fe5b9060005260206000200160009054906101000a900473ffffffffffffffffffffffffffffffffffffffff1673ffffffffffffffffffffffffffffffffffffffff1673ffffffffffffffffffffffffffffffffffffffff1681526020019081526020016000206001015482840103600080600384815481106137b757fe5b9060005260206000200160009054906101000a900473ffffffffffffffffffffffffffffffffffffffff1673ffffffffffffffffffffffffffffffffffffffff1673ffffffffffffffffffffffffffffffffffffffff168152602001908152602001600020600801819055506000806003838154811061383357fe5b9060005260206000200160009054906101000a900473ffffffffffffffffffffffffffffffffffffffff1673ffffffffffffffffffffffffffffffffffffffff1673ffffffffffffffffffffffffffffffffffffffff16815260200190815260200160002060080154600080600384815481106138ac57fe5b9060005260206000200160009054906101000a900473ffffffffffffffffffffffffffffffffffffffff1673ffffffffffffffffffffffffffffffffffffffff1673ffffffffffffffffffffffffffffffffffffffff168152602001908152602001600020600a0181905550816000806003848154811061392957fe5b9060005260206000200160009054906101000a900473ffffffffffffffffffffffffffffffffffffffff1673ffffffffffffffffffffffffffffffffffffffff1673ffffffffffffffffffffffffffffffffffffffff168152602001908152602001600020600301600082825403925050819055506000806000600384815481106139b057fe5b9060005260206000200160009054906101000a900473ffffffffffffffffffffffffffffffffffffffff1673ffffffffffffffffffffffffffffffffffffffff1673ffffffffffffffffffffffffffffffffffffffff16815260200190815260200160002060010181905550613bae565b600080600060038481548110613a3357fe5b9060005260206000200160009054906101000a900473ffffffffffffffffffffffffffffffffffffffff1673ffffffffffffffffffffffffffffffffffffffff1673ffffffffffffffffffffffffffffffffffffffff1681526020019081526020016000206008018190555081830160008060038481548110613ab257fe5b9060005260206000200160009054906101000a900473ffffffffffffffffffffffffffffffffffffffff1673ffffffffffffffffffffffffffffffffffffffff1673ffffffffffffffffffffffffffffffffffffffff168152602001908152602001600020600101600082825403925050819055508160008060038481548110613b3857fe5b9060005260206000200160009054906101000a900473ffffffffffffffffffffffffffffffffffffffff1673ffffffffffffffffffffffffffffffffffffffff1673ffffffffffffffffffffffffffffffffffffffff168152602001908152602001600020600301600082825403925050819055505b5b808060010191505061310b565b506144a2565b60008090505b6003805490508110156144a057858181518110613be157fe5b602002602001015160008060038481548110613bf957fe5b9060005260206000200160009054906101000a900473ffffffffffffffffffffffffffffffffffffffff1673ffffffffffffffffffffffffffffffffffffffff1673ffffffffffffffffffffffffffffffffffffffff168152602001908152602001600020600101819055506103e88560008060038581548110613c7957fe5b9060005260206000200160009054906101000a900473ffffffffffffffffffffffffffffffffffffffff1673ffffffffffffffffffffffffffffffffffffffff1673ffffffffffffffffffffffffffffffffffffffff1681526020019081526020016000206009015402029250600160008060038481548110613cf857fe5b9060005260206000200160009054906101000a900473ffffffffffffffffffffffffffffffffffffffff1673ffffffffffffffffffffffffffffffffffffffff1673ffffffffffffffffffffffffffffffffffffffff16815260200190815260200160002060020154148015613dec5750600c54600b540360008060038481548110613d8057fe5b9060005260206000200160009054906101000a900473ffffffffffffffffffffffffffffffffffffffff1673ffffffffffffffffffffffffffffffffffffffff1673ffffffffffffffffffffffffffffffffffffffff1681526020019081526020016000206003015411155b15613f0657600c5460008060038481548110613e0457fe5b9060005260206000200160009054906101000a900473ffffffffffffffffffffffffffffffffffffffff1673ffffffffffffffffffffffffffffffffffffffff1673ffffffffffffffffffffffffffffffffffffffff16815260200190815260200160002060010160008282540192505081905550600c5460008060038481548110613e8c57fe5b9060005260206000200160009054906101000a900473ffffffffffffffffffffffffffffffffffffffff1673ffffffffffffffffffffffffffffffffffffffff1673ffffffffffffffffffffffffffffffffffffffff16815260200190815260200160002060030160008282540192505081905550614194565b600160008060038481548110613f1857fe5b9060005260206000200160009054906101000a900473ffffffffffffffffffffffffffffffffffffffff1673ffffffffffffffffffffffffffffffffffffffff1673ffffffffffffffffffffffffffffffffffffffff1681526020019081526020016000206002015414801561400c5750600c54600b540360008060038481548110613fa057fe5b9060005260206000200160009054906101000a900473ffffffffffffffffffffffffffffffffffffffff1673ffffffffffffffffffffffffffffffffffffffff1673ffffffffffffffffffffffffffffffffffffffff1681526020019081526020016000206003015410155b15614193576000806003838154811061402157fe5b9060005260206000200160009054906101000a900473ffffffffffffffffffffffffffffffffffffffff1673ffffffffffffffffffffffffffffffffffffffff1673ffffffffffffffffffffffffffffffffffffffff16815260200190815260200160002060030154600b54036000806003848154811061409e57fe5b9060005260206000200160009054906101000a900473ffffffffffffffffffffffffffffffffffffffff1673ffffffffffffffffffffffffffffffffffffffff1673ffffffffffffffffffffffffffffffffffffffff16815260200190815260200160002060010160008282540192505081905550600c546000806003848154811061412657fe5b9060005260206000200160009054906101000a900473ffffffffffffffffffffffffffffffffffffffff1673ffffffffffffffffffffffffffffffffffffffff1673ffffffffffffffffffffffffffffffffffffffff168152602001908152602001600020600301819055505b5b82600080600384815481106141a557fe5b9060005260206000200160009054906101000a900473ffffffffffffffffffffffffffffffffffffffff1673ffffffffffffffffffffffffffffffffffffffff1673ffffffffffffffffffffffffffffffffffffffff16815260200190815260200160002060010154101561438e576000806003838154811061422457fe5b9060005260206000200160009054906101000a900473ffffffffffffffffffffffffffffffffffffffff1673ffffffffffffffffffffffffffffffffffffffff1673ffffffffffffffffffffffffffffffffffffffff1681526020019081526020016000206001015483036000806003848154811061429f57fe5b9060005260206000200160009054906101000a900473ffffffffffffffffffffffffffffffffffffffff1673ffffffffffffffffffffffffffffffffffffffff1673ffffffffffffffffffffffffffffffffffffffff1681526020019081526020016000206008018190555060008060006003848154811061431d57fe5b9060005260206000200160009054906101000a900473ffffffffffffffffffffffffffffffffffffffff1673ffffffffffffffffffffffffffffffffffffffff1673ffffffffffffffffffffffffffffffffffffffff16815260200190815260200160002060010181905550614493565b6000806000600384815481106143a057fe5b9060005260206000200160009054906101000a900473ffffffffffffffffffffffffffffffffffffffff1673ffffffffffffffffffffffffffffffffffffffff1673ffffffffffffffffffffffffffffffffffffffff16815260200190815260200160002060080181905550826000806003848154811061441d57fe5b9060005260206000200160009054906101000a900473ffffffffffffffffffffffffffffffffffffffff1673ffffffffffffffffffffffffffffffffffffffff1673ffffffffffffffffffffffffffffffffffffffff168152602001908152602001600020600101600082825403925050819055505b8080600101915050613bc8565b505b5050505050565b600460006144b7919061515b565b600560006144c5919061515b565b6001600a541415614b055760008090505b6003805490508110156146b1576000806000600384815481106144f557fe5b9060005260206000200160009054906101000a900473ffffffffffffffffffffffffffffffffffffffff1673ffffffffffffffffffffffffffffffffffffffff1673ffffffffffffffffffffffffffffffffffffffff1681526020019081526020016000206004015411156146065760046003828154811061457357fe5b9060005260206000200160009054906101000a900473ffffffffffffffffffffffffffffffffffffffff1690806001815401808255809150509060018203906000526020600020016000909192909190916101000a81548173ffffffffffffffffffffffffffffffffffffffff021916908373ffffffffffffffffffffffffffffffffffffffff160217905550506146a4565b60056003828154811061461557fe5b9060005260206000200160009054906101000a900473ffffffffffffffffffffffffffffffffffffffff1690806001815401808255809150509060018203906000526020600020016000909192909190916101000a81548173ffffffffffffffffffffffffffffffffffffffff021916908373ffffffffffffffffffffffffffffffffffffffff160217905550505b80806001019150506144d6565b5060008090505b6004805490508110156148d85760006001820190505b6004805490508110156148ca576000600483815481106146ea57fe5b9060005260206000200160009054906101000a900473ffffffffffffffffffffffffffffffffffffffff1690506000806004848154811061472757fe5b9060005260206000200160009054906101000a900473ffffffffffffffffffffffffffffffffffffffff1673ffffffffffffffffffffffffffffffffffffffff1673ffffffffffffffffffffffffffffffffffffffff168152602001908152602001600020600401546000808373ffffffffffffffffffffffffffffffffffffffff1673ffffffffffffffffffffffffffffffffffffffff1681526020019081526020016000206004015410156148bc57600482815481106147e557fe5b9060005260206000200160009054906101000a900473ffffffffffffffffffffffffffffffffffffffff166004848154811061481d57fe5b9060005260206000200160006101000a81548173ffffffffffffffffffffffffffffffffffffffff021916908373ffffffffffffffffffffffffffffffffffffffff160217905550806004838154811061487357fe5b9060005260206000200160006101000a81548173ffffffffffffffffffffffffffffffffffffffff021916908373ffffffffffffffffffffffffffffffffffffffff1602179055505b5080806001019150506146ce565b5080806001019150506146b8565b5060008090505b600580549050811015614aff5760006001820190505b600580549050811015614af15760006005838154811061491157fe5b9060005260206000200160009054906101000a900473ffffffffffffffffffffffffffffffffffffffff1690506000806005848154811061494e57fe5b9060005260206000200160009054906101000a900473ffffffffffffffffffffffffffffffffffffffff1673ffffffffffffffffffffffffffffffffffffffff1673ffffffffffffffffffffffffffffffffffffffff168152602001908152602001600020600601546000808373ffffffffffffffffffffffffffffffffffffffff1673ffffffffffffffffffffffffffffffffffffffff168152602001908152602001600020600601541115614ae35760058281548110614a0c57fe5b9060005260206000200160009054906101000a900473ffffffffffffffffffffffffffffffffffffffff1660058481548110614a4457fe5b9060005260206000200160006101000a81548173ffffffffffffffffffffffffffffffffffffffff021916908373ffffffffffffffffffffffffffffffffffffffff1602179055508060058381548110614a9a57fe5b9060005260206000200160006101000a81548173ffffffffffffffffffffffffffffffffffffffff021916908373ffffffffffffffffffffffffffffffffffffffff1602179055505b5080806001019150506148f5565b5080806001019150506148df565b50615136565b60008090505b600380549050811015614ce657600080600060038481548110614b2a57fe5b9060005260206000200160009054906101000a900473ffffffffffffffffffffffffffffffffffffffff1673ffffffffffffffffffffffffffffffffffffffff1673ffffffffffffffffffffffffffffffffffffffff168152602001908152602001600020600501541115614c3b57600460038281548110614ba857fe5b9060005260206000200160009054906101000a900473ffffffffffffffffffffffffffffffffffffffff1690806001815401808255809150509060018203906000526020600020016000909192909190916101000a81548173ffffffffffffffffffffffffffffffffffffffff021916908373ffffffffffffffffffffffffffffffffffffffff16021790555050614cd9565b600560038281548110614c4a57fe5b9060005260206000200160009054906101000a900473ffffffffffffffffffffffffffffffffffffffff1690806001815401808255809150509060018203906000526020600020016000909192909190916101000a81548173ffffffffffffffffffffffffffffffffffffffff021916908373ffffffffffffffffffffffffffffffffffffffff160217905550505b8080600101915050614b0b565b5060008090505b600480549050811015614f0d5760006001820190505b600480549050811015614eff57600060048381548110614d1f57fe5b9060005260206000200160009054906101000a900473ffffffffffffffffffffffffffffffffffffffff16905060008060048481548110614d5c57fe5b9060005260206000200160009054906101000a900473ffffffffffffffffffffffffffffffffffffffff1673ffffffffffffffffffffffffffffffffffffffff1673ffffffffffffffffffffffffffffffffffffffff168152602001908152602001600020600501546000808373ffffffffffffffffffffffffffffffffffffffff1673ffffffffffffffffffffffffffffffffffffffff168152602001908152602001600020600501541015614ef15760048281548110614e1a57fe5b9060005260206000200160009054906101000a900473ffffffffffffffffffffffffffffffffffffffff1660048481548110614e5257fe5b9060005260206000200160006101000a81548173ffffffffffffffffffffffffffffffffffffffff021916908373ffffffffffffffffffffffffffffffffffffffff1602179055508060048381548110614ea857fe5b9060005260206000200160006101000a81548173ffffffffffffffffffffffffffffffffffffffff021916908373ffffffffffffffffffffffffffffffffffffffff1602179055505b508080600101915050614d03565b508080600101915050614ced565b5060008090505b6005805490508110156151345760006001820190505b60058054905081101561512657600060058381548110614f4657fe5b9060005260206000200160009054906101000a900473ffffffffffffffffffffffffffffffffffffffff16905060008060058481548110614f8357fe5b9060005260206000200160009054906101000a900473ffffffffffffffffffffffffffffffffffffffff1673ffffffffffffffffffffffffffffffffffffffff1673ffffffffffffffffffffffffffffffffffffffff168152602001908152602001600020600701546000808373ffffffffffffffffffffffffffffffffffffffff1673ffffffffffffffffffffffffffffffffffffffff168152602001908152602001600020600701541115615118576005828154811061504157fe5b9060005260206000200160009054906101000a900473ffffffffffffffffffffffffffffffffffffffff166005848154811061507957fe5b9060005260206000200160006101000a81548173ffffffffffffffffffffffffffffffffffffffff021916908373ffffffffffffffffffffffffffffffffffffffff16021790555080600583815481106150cf57fe5b9060005260206000200160006101000a81548173ffffffffffffffffffffffffffffffffffffffff021916908373ffffffffffffffffffffffffffffffffffffffff1602179055505b508080600101915050614f2a565b508080600101915050614f14565b505b565b604051806101800160405280600c90602082028038833980820191505090505090565b5080546000825590600052602060002090810190615179919061517c565b50565b61519e91905b8082111561519a576000816000905550600101615182565b5090565b9056fea265627a7a723158206651a37dbd526a974098825de3ca7ae0e1cb98483f0803b3325b65078a83837a64736f6c63430005100032",
  "source": "pragma solidity >=0.5.0 <0.9.0;\r\n\r\ncontract EnergyMarket {\r\n\r\n    struct User {\r\n        uint rate;                 // user rate utility plan (0 for flat rate, 1 for TOU)\r\n        uint demand;               // user demand in Wh\r\n        uint battery;              // does this user have a battery energy storage system (0 no, 1 yes)\r\n        uint battery_charge;       // battery charge at the start of the current period (Wh)\r\n        uint bid_peak;             // user energy bid price in c/kWh during peak periods\r\n        uint bid_offpeak;          // user energy bid price in c/kWh during off peak periods\r\n        uint ask_peak;             // user energy ask price in c/kWh during peak periods\r\n        uint ask_offpeak;          // user energy ask price in c/kWh during off peak periods\r\n        uint energy_excess;        // user total excess energy after covering own demand\r\n        uint solar_capacity;       // user installed solar generation capacity in kW\r\n        uint solar_excess;         // user solar excess energy after covering own demand\r\n        uint balance;              // available balance for transactions (internal token)\r\n    }\r\n\r\n    mapping(address => User) public users;\r\n    mapping(address => bool) public registered_user;\r\n    uint numUsers = 0;\r\n\r\n    // Initialize arrays to split users placing buying bids and users placing selling bids\r\n    address[] all_users;\r\n    address[] buy_users;\r\n    address[] sell_users;\r\n\r\n    // Set electric utility related rates\r\n    uint flatRate = 20;         // rate to buy electricity from utility in c/kWh (flat rate customers)\r\n    uint TOUrate_peak = 30;     // peak rate to buy electricity from utility in c/kWh (TOU customers)\r\n    uint TOUrate_off = 3;       // off peak rate to buy electricity from utility in c/kWh (TOU customers)\r\n    uint fit_price = 10;        // feed-rate-tariff (price in c/kWh at which grid buys excess solar power)\r\n\r\n    // Initialize period type (0 for off peak and 1 for peak)\r\n    uint period_type = 0;\r\n\r\n    // battery capacity (Wh) and power rating (W) - assume same for all batteries\r\n    uint batt_E = 12000;\r\n    uint batt_P = 4000;\r\n\r\n    // add new user to the descentralized energy trading platform\r\n    function register(uint _rate, uint _solarCapacity, uint _battery) public {\r\n        require(registered_user[msg.sender] == false, \"User already registered\");\r\n        users[msg.sender].rate = _rate;\r\n        users[msg.sender].solar_capacity = _solarCapacity;\r\n        users[msg.sender].battery = _battery;\r\n        users[msg.sender].battery_charge = 0;\r\n        users[msg.sender].balance = 15000000;\r\n        registered_user[msg.sender] = true;\r\n        all_users.push(msg.sender);\r\n        numUsers++;\r\n    }\r\n\r\n    // lets registered user change his own bidding rules\r\n    function setBidAsk(uint _BidPk, uint _BidOffPk, uint _AskPk, uint _AskOffPk) public {\r\n        users[msg.sender].bid_peak = _BidPk;\r\n        users[msg.sender].bid_offpeak = _BidOffPk;\r\n        users[msg.sender].ask_peak = _AskPk;\r\n        users[msg.sender].ask_offpeak = _AskOffPk;\r\n    }\r\n\r\n    function userData() view public returns (uint[12] memory) {\r\n        uint[12] memory val;\r\n        val[0] = users[msg.sender].rate;\r\n        val[1] = users[msg.sender].demand;\r\n        val[2] = users[msg.sender].battery;\r\n        val[3] = users[msg.sender].battery_charge;\r\n        val[4] = users[msg.sender].bid_peak;\r\n        val[5] = users[msg.sender].bid_offpeak;\r\n        val[6] = users[msg.sender].ask_peak;\r\n        val[7] = users[msg.sender].ask_offpeak;\r\n        val[8] = users[msg.sender].energy_excess;\r\n        val[9] = users[msg.sender].solar_capacity;\r\n        val[10] = users[msg.sender].solar_excess;\r\n        val[11] = users[msg.sender].balance;\r\n        return val;\r\n    }\r\n\r\n    // place users buy and sell bids into two different arrays and sort them\r\n    function sortBids() private {\r\n        // reset arrays in case a user updated its bidding strategy. to be more efficient,\r\n        // we can add some indicator of whether or not a user updated his strategy and avoid\r\n        // this step completely\r\n        delete buy_users; delete sell_users;\r\n\r\n        // If peak period:\r\n        if (period_type == 1) {\r\n\r\n        // assign user addresses to corresponding buy bids and sell bids arrays\r\n        for (uint i = 0; i < all_users.length; i++) {\r\n            if (users[all_users[i]].bid_peak > 0) {buy_users.push(all_users[i]);}\r\n            else {sell_users.push(all_users[i]);}\r\n        }\r\n\r\n        // descending sort of buy bids\r\n        for (uint i = 0; i < buy_users.length; i++){\r\n            for (uint j = i + 1; j < buy_users.length; j++) {\r\n                address temp = buy_users[i];\r\n                if (users[temp].bid_peak < users[buy_users[j]].bid_peak) {\r\n                    buy_users[i] = buy_users[j];\r\n                    buy_users[j] = temp;\r\n                }\r\n            }\r\n        }\r\n\r\n        // ascending sort of sell bids\r\n        for (uint i = 0; i < sell_users.length; i++){\r\n            for (uint j = i + 1; j < sell_users.length; j++) {\r\n                address temp = sell_users[i];\r\n                if (users[temp].ask_peak > users[sell_users[j]].ask_peak) {\r\n                    sell_users[i] = sell_users[j];\r\n                    sell_users[j] = temp;\r\n                }\r\n            }\r\n        }\r\n        } else // If off-peak period:\r\n         {\r\n                    // assign user addresses to corresponding buy bids and sell bids arrays\r\n        for (uint i = 0; i < all_users.length; i++) {\r\n            if (users[all_users[i]].bid_offpeak > 0) {buy_users.push(all_users[i]);}\r\n            else {sell_users.push(all_users[i]);}\r\n        }\r\n\r\n        // descending sort of buy bids\r\n        for (uint i = 0; i < buy_users.length; i++){\r\n            for (uint j = i + 1; j < buy_users.length; j++) {\r\n                address temp = buy_users[i];\r\n                if (users[temp].bid_offpeak < users[buy_users[j]].bid_offpeak) {\r\n                    buy_users[i] = buy_users[j];\r\n                    buy_users[j] = temp;\r\n                }\r\n            }\r\n        }\r\n\r\n        // ascending sort of sell bids\r\n        for (uint i = 0; i < sell_users.length; i++){\r\n            for (uint j = i + 1; j < sell_users.length; j++) {\r\n                address temp = sell_users[i];\r\n                if (users[temp].ask_offpeak > users[sell_users[j]].ask_offpeak) {\r\n                    sell_users[i] = sell_users[j];\r\n                    sell_users[j] = temp;\r\n                }\r\n            }\r\n        }\r\n\r\n        }\r\n    }\r\n\r\n    // update demand and solar irradiation for current period. calculate excess energy for each user, depending on \r\n    // the time period (peak vs off-peak)\r\n    function updateDI(uint[] memory _demand, uint _irradiance, uint _periodtype) private {\r\n        period_type = _periodtype;\r\n        uint _solar_energy;\r\n        uint _batt_energy;\r\n        // For peak period\r\n        if (period_type == 1){\r\n        for (uint i = 0; i < all_users.length; i++) {\r\n            // calculate available solar power and battery power for the current period\r\n            users[all_users[i]].demand = _demand[i];\r\n            _solar_energy = users[all_users[i]].solar_capacity*_irradiance*1000;\r\n            if (users[all_users[i]].battery_charge >= batt_P) {_batt_energy = batt_P;}\r\n            else {_batt_energy = users[all_users[i]].battery_charge;}\r\n            \r\n            // calculate excess energy (if any) and demand not meet by PV or battery resources. calculate solar energy\r\n            // recall that we are not allowed to sell battery energy to the grid\r\n            if (users[all_users[i]].demand <= _batt_energy) {\r\n                users[all_users[i]].energy_excess =  _solar_energy + _batt_energy - users[all_users[i]].demand;\r\n                users[all_users[i]].solar_excess =  _solar_energy;\r\n                users[all_users[i]].battery_charge -= _batt_energy - users[all_users[i]].demand;\r\n                users[all_users[i]].demand = 0;\r\n            } else if (users[all_users[i]].demand < _solar_energy + _batt_energy) {\r\n                users[all_users[i]].energy_excess =  _solar_energy + _batt_energy - users[all_users[i]].demand;\r\n                users[all_users[i]].solar_excess =  users[all_users[i]].energy_excess;\r\n                users[all_users[i]].battery_charge -= _batt_energy;\r\n                users[all_users[i]].demand = 0;\r\n            } else {\r\n                users[all_users[i]].energy_excess = 0;\r\n                users[all_users[i]].demand -= _solar_energy + _batt_energy;\r\n                users[all_users[i]].battery_charge -= _batt_energy;\r\n            }\r\n        } \r\n        \r\n        // for off peak period:\r\n        } else {\r\n            for (uint i = 0; i < all_users.length; i++) {\r\n                // calculate available solar power (there could be solar power, depending on the off peak period range)\r\n                users[all_users[i]].demand = _demand[i];\r\n                _solar_energy = users[all_users[i]].solar_capacity*_irradiance*1000;\r\n                // set additional demand for battery charging, if applicable\r\n                if (users[all_users[i]].battery == 1 && users[all_users[i]].battery_charge <= batt_E - batt_P) {\r\n                    users[all_users[i]].demand += batt_P;\r\n                    users[all_users[i]].battery_charge += batt_P;\r\n                    }\r\n                else if (users[all_users[i]].battery == 1 && users[all_users[i]].battery_charge >= batt_E - batt_P) {\r\n                    users[all_users[i]].demand += batt_E - users[all_users[i]].battery_charge;\r\n                    users[all_users[i]].battery_charge = batt_P;\r\n                    }\r\n                // calculate excess energy (if any) and demand not meet by PV or battery resources\r\n                if (users[all_users[i]].demand < _solar_energy) {\r\n                    users[all_users[i]].energy_excess =  _solar_energy - users[all_users[i]].demand;\r\n                    users[all_users[i]].demand = 0;\r\n                } else {\r\n                    users[all_users[i]].energy_excess = 0;\r\n                    users[all_users[i]].demand -= _solar_energy;\r\n                }\r\n            }\r\n        }\r\n    }\r\n\r\n    // clears market for current period\r\n    function clearMarket(uint[] memory _demand, uint _irradiance, uint _periodtype) public {\r\n        updateDI(_demand, _irradiance, _periodtype);\r\n        sortBids();\r\n        uint j_init = 0;\r\n        uint txprice = 0;\r\n        // P2P energy trading\r\n\r\n        // Peak period\r\n        if (period_type == 1){\r\n        for (uint i = 0; i < sell_users.length; i++) {\r\n            if (users[buy_users[i]].bid_peak < users[sell_users[j_init]].ask_peak) {break;}\r\n            for (uint j = j_init; j < buy_users.length; j++) {\r\n                if (users[buy_users[i]].bid_peak < users[sell_users[j]].ask_peak) {break;}\r\n                if (users[sell_users[i]].energy_excess >= users[buy_users[j]].demand) {\r\n                    txprice = (users[buy_users[j]].bid_peak + users[sell_users[i]].ask_peak)/2;\r\n                    users[buy_users[j]].balance -= txprice*users[buy_users[j]].demand;\r\n                    users[sell_users[i]].balance += txprice*users[buy_users[j]].demand;\r\n                    users[sell_users[i]].energy_excess -= users[buy_users[j]].demand;\r\n                    users[buy_users[j]].demand = 0;\r\n                    j_init++;\r\n                } else if (users[sell_users[i]].energy_excess < users[buy_users[j]].demand) {\r\n                    txprice = (users[buy_users[j]].bid_peak + users[sell_users[i]].ask_peak)/2;\r\n                    users[buy_users[j]].balance -= txprice*users[sell_users[i]].energy_excess;\r\n                    users[sell_users[i]].balance += txprice*users[sell_users[i]].energy_excess;\r\n                    users[buy_users[j]].demand -= users[sell_users[i]].energy_excess;\r\n                    users[sell_users[i]].energy_excess = 0;\r\n                    break;\r\n                }\r\n            }\r\n        }\r\n        } else {\r\n        // Off Peak period\r\n        for (uint i = 0; i < sell_users.length; i++) {\r\n            if (users[buy_users[i]].bid_offpeak < users[sell_users[j_init]].ask_offpeak) {break;}\r\n            for (uint j = j_init; j < buy_users.length; j++) {\r\n                if (users[buy_users[i]].bid_offpeak < users[sell_users[j]].ask_offpeak) {break;}\r\n                if (users[sell_users[i]].energy_excess >= users[buy_users[j]].demand) {\r\n                    txprice = (users[buy_users[j]].bid_offpeak + users[sell_users[i]].ask_offpeak)/2;\r\n                    users[buy_users[j]].balance -= txprice*users[buy_users[j]].demand;\r\n                    users[sell_users[i]].balance += txprice*users[buy_users[j]].demand;\r\n                    users[sell_users[i]].energy_excess -= users[buy_users[j]].demand;\r\n                    users[buy_users[j]].demand = 0;\r\n                    j_init++;\r\n                } else if (users[sell_users[i]].energy_excess < users[buy_users[j]].demand) {\r\n                    txprice = (users[buy_users[j]].bid_offpeak + users[sell_users[i]].ask_offpeak)/2;\r\n                    users[buy_users[j]].balance -= txprice*users[sell_users[i]].energy_excess;\r\n                    users[sell_users[i]].balance += txprice*users[sell_users[i]].energy_excess;\r\n                    users[buy_users[j]].demand -= users[sell_users[i]].energy_excess;\r\n                    users[sell_users[i]].energy_excess = 0;\r\n                    break;\r\n                }\r\n            }\r\n        }\r\n        }\r\n\r\n        // Settle remaining energy balances with the grid (can't sell excess battery power to the grid)\r\n        for (uint i = 0; i < sell_users.length; i++) {\r\n            if (users[sell_users[i]].energy_excess > 0 && users[sell_users[i]].solar_excess <= users[sell_users[i]].energy_excess) {\r\n                users[sell_users[i]].balance += users[sell_users[i]].solar_excess*fit_price;\r\n            } else if (users[sell_users[i]].energy_excess > 0 && users[sell_users[i]].solar_excess > users[sell_users[i]].energy_excess) {\r\n                users[sell_users[i]].balance += users[sell_users[i]].energy_excess*fit_price;\r\n            }\r\n        }\r\n        for (uint i = 0; i < all_users.length; i++) {\r\n            if (users[all_users[i]].demand > 0) {\r\n                if (users[all_users[i]].rate == 0){users[all_users[i]].balance -= users[all_users[i]].demand*flatRate;}\r\n                else if (users[all_users[i]].rate == 1 && period_type == 1){users[all_users[i]].balance -= users[all_users[i]].demand*TOUrate_peak;}\r\n                else if (users[all_users[i]].rate == 1 && period_type == 0){users[all_users[i]].balance -= users[all_users[i]].demand*TOUrate_off;}\r\n            }\r\n        }\r\n    }\r\n}",
  "sourcePath": "C:\\Users\\jjjaw\\OneDrive\\Documents\\Columbia\\02_Spring2022\\Blockchain\\Project\\p2p-energy-market\\contracts\\EnergyMarket.sol",
  "compiler": {
    "name": "solc",
    "version": "0.5.16+commit.9c3226ce.Emscripten.clang"
  },
  "schemaVersion": "3.4.7",
  "updatedAt": "2022-05-10T01:25:33.378Z",
  "networkType": "ethereum",
  "devdoc": {
    "methods": {}
  },
  "userdoc": {
    "methods": {}
  }
}